{
    "contractName": "Micontrato",
    "abi": [
        {
            "inputs": [
                {
                    "internalType": "string",
                    "name": "name_",
                    "type": "string"
                },
                {
                    "internalType": "string",
                    "name": "symbol_",
                    "type": "string"
                },
                {
                    "internalType": "uint8",
                    "name": "decimals_",
                    "type": "uint8"
                },
                {
                    "internalType": "uint256",
                    "name": "suply_",
                    "type": "uint256"
                }
            ],
            "stateMutability": "nonpayable",
            "type": "constructor"
        },
        {
            "anonymous": false,
            "inputs": [
                {
                    "indexed": true,
                    "internalType": "address",
                    "name": "owner",
                    "type": "address"
                },
                {
                    "indexed": true,
                    "internalType": "address",
                    "name": "spender",
                    "type": "address"
                },
                {
                    "indexed": false,
                    "internalType": "uint256",
                    "name": "value",
                    "type": "uint256"
                }
            ],
            "name": "Approval",
            "type": "event"
        },
        {
            "anonymous": false,
            "inputs": [
                {
                    "indexed": false,
                    "internalType": "uint256",
                    "name": "productId",
                    "type": "uint256"
                }
            ],
            "name": "NewProductCreated",
            "type": "event"
        },
        {
            "anonymous": false,
            "inputs": [
                {
                    "indexed": true,
                    "internalType": "address",
                    "name": "from",
                    "type": "address"
                },
                {
                    "indexed": true,
                    "internalType": "address",
                    "name": "to",
                    "type": "address"
                },
                {
                    "indexed": false,
                    "internalType": "uint256",
                    "name": "value",
                    "type": "uint256"
                }
            ],
            "name": "Transfer",
            "type": "event"
        },
        {
            "inputs": [
                {
                    "internalType": "address",
                    "name": "_owner",
                    "type": "address"
                },
                {
                    "internalType": "address",
                    "name": "spender",
                    "type": "address"
                }
            ],
            "name": "allowance",
            "outputs": [
                {
                    "internalType": "uint256",
                    "name": "",
                    "type": "uint256"
                }
            ],
            "stateMutability": "view",
            "type": "function"
        },
        {
            "inputs": [
                {
                    "internalType": "address",
                    "name": "spender",
                    "type": "address"
                },
                {
                    "internalType": "uint256",
                    "name": "value",
                    "type": "uint256"
                }
            ],
            "name": "approve",
            "outputs": [
                {
                    "internalType": "bool",
                    "name": "",
                    "type": "bool"
                }
            ],
            "stateMutability": "nonpayable",
            "type": "function"
        },
        {
            "inputs": [
                {
                    "internalType": "address",
                    "name": "_owner",
                    "type": "address"
                }
            ],
            "name": "balanceOf",
            "outputs": [
                {
                    "internalType": "uint256",
                    "name": "",
                    "type": "uint256"
                }
            ],
            "stateMutability": "view",
            "type": "function"
        },
        {
            "inputs": [],
            "name": "decimals",
            "outputs": [
                {
                    "internalType": "uint8",
                    "name": "",
                    "type": "uint8"
                }
            ],
            "stateMutability": "view",
            "type": "function"
        },
        {
            "inputs": [],
            "name": "name",
            "outputs": [
                {
                    "internalType": "string",
                    "name": "",
                    "type": "string"
                }
            ],
            "stateMutability": "view",
            "type": "function"
        },
        {
            "inputs": [
                {
                    "internalType": "uint256",
                    "name": "",
                    "type": "uint256"
                }
            ],
            "name": "productsBase",
            "outputs": [
                {
                    "internalType": "uint256",
                    "name": "id",
                    "type": "uint256"
                },
                {
                    "internalType": "string",
                    "name": "name",
                    "type": "string"
                },
                {
                    "internalType": "uint256",
                    "name": "amount",
                    "type": "uint256"
                },
                {
                    "internalType": "uint256",
                    "name": "price",
                    "type": "uint256"
                }
            ],
            "stateMutability": "view",
            "type": "function"
        },
        {
            "inputs": [],
            "name": "symbol",
            "outputs": [
                {
                    "internalType": "string",
                    "name": "",
                    "type": "string"
                }
            ],
            "stateMutability": "view",
            "type": "function"
        },
        {
            "inputs": [],
            "name": "totalSupply",
            "outputs": [
                {
                    "internalType": "uint256",
                    "name": "",
                    "type": "uint256"
                }
            ],
            "stateMutability": "view",
            "type": "function"
        },
        {
            "inputs": [
                {
                    "internalType": "address",
                    "name": "to",
                    "type": "address"
                },
                {
                    "internalType": "uint256",
                    "name": "value",
                    "type": "uint256"
                }
            ],
            "name": "transfer",
            "outputs": [
                {
                    "internalType": "bool",
                    "name": "",
                    "type": "bool"
                }
            ],
            "stateMutability": "nonpayable",
            "type": "function"
        },
        {
            "inputs": [
                {
                    "internalType": "address",
                    "name": "from",
                    "type": "address"
                },
                {
                    "internalType": "address",
                    "name": "to",
                    "type": "address"
                },
                {
                    "internalType": "uint256",
                    "name": "value",
                    "type": "uint256"
                }
            ],
            "name": "transferFrom",
            "outputs": [
                {
                    "internalType": "bool",
                    "name": "",
                    "type": "bool"
                }
            ],
            "stateMutability": "nonpayable",
            "type": "function"
        }
    ],
    "bytecode": "60806040523480156200001157600080fd5b5060405162000c8238038062000c82833981016040819052620000349162000172565b60016200004285826200028c565b5060026200005184826200028c565b506003805460ff191660ff84169081179091556200007190600a6200046d565b6200007d908262000485565b600b819055600080546001600160a01b031916339081178255815260096020526040902055506200049f92505050565b634e487b7160e01b600052604160045260246000fd5b600082601f830112620000d557600080fd5b81516001600160401b0380821115620000f257620000f2620000ad565b604051601f8301601f19908116603f011681019082821181831017156200011d576200011d620000ad565b816040528381526020925086838588010111156200013a57600080fd5b600091505b838210156200015e57858201830151818301840152908201906200013f565b600093810190920192909252949350505050565b600080600080608085870312156200018957600080fd5b84516001600160401b0380821115620001a157600080fd5b620001af88838901620000c3565b95506020870151915080821115620001c657600080fd5b50620001d587828801620000c3565b935050604085015160ff81168114620001ed57600080fd5b6060959095015193969295505050565b600181811c908216806200021257607f821691505b6020821081036200023357634e487b7160e01b600052602260045260246000fd5b50919050565b601f8211156200028757600081815260208120601f850160051c81016020861015620002625750805b601f850160051c820191505b8181101562000283578281556001016200026e565b5050505b505050565b81516001600160401b03811115620002a857620002a8620000ad565b620002c081620002b98454620001fd565b8462000239565b602080601f831160018114620002f85760008415620002df5750858301515b600019600386901b1c1916600185901b17855562000283565b600085815260208120601f198616915b82811015620003295788860151825594840194600190910190840162000308565b5085821015620003485787850151600019600388901b60f8161c191681555b5050505050600190811b01905550565b634e487b7160e01b600052601160045260246000fd5b600181815b80851115620003af57816000190482111562000393576200039362000358565b80851615620003a157918102915b93841c939080029062000373565b509250929050565b600082620003c85750600162000467565b81620003d75750600062000467565b8160018114620003f05760028114620003fb576200041b565b600191505062000467565b60ff8411156200040f576200040f62000358565b50506001821b62000467565b5060208310610133831016604e8410600b841016171562000440575081810a62000467565b6200044c83836200036e565b806000190482111562000463576200046362000358565b0290505b92915050565b60006200047e60ff841683620003b7565b9392505050565b808202811582820484141762000467576200046762000358565b6107d380620004af6000396000f3fe608060405234801561001057600080fd5b506004361061009e5760003560e01c80636c3cebfe116100665780636c3cebfe1461012857806370a082311461014b57806395d89b4114610174578063a9059cbb1461017c578063dd62ed3e1461018f57600080fd5b806306fdde03146100a3578063095ea7b3146100c157806318160ddd146100e457806323b872dd146100f6578063313ce56714610109575b600080fd5b6100ab6101c8565b6040516100b891906105f8565b60405180910390f35b6100d46100cf36600461062e565b610256565b60405190151581526020016100b8565b600b545b6040519081526020016100b8565b6100d4610104366004610658565b6102d1565b6003546101169060ff1681565b60405160ff90911681526020016100b8565b61013b610136366004610694565b610424565b6040516100b894939291906106ad565b6100e86101593660046106d9565b6001600160a01b031660009081526009602052604090205490565b6100ab6104e8565b6100d461018a36600461062e565b6104f5565b6100e861019d3660046106f4565b6001600160a01b039182166000908152600a6020908152604080832093909416825291909152205490565b600180546101d590610727565b80601f016020809104026020016040519081016040528092919081815260200182805461020190610727565b801561024e5780601f106102235761010080835404028352916020019161024e565b820191906000526020600020905b81548152906001019060200180831161023157829003601f168201915b505050505081565b60006001600160a01b03831661026b57600080fd5b336000818152600a602090815260408083206001600160a01b03881680855290835292819020869055518581529192917f8c5be1e5ebec7d5bd14f71427d1e84f3dd0314c0f7b2291e5b200ac8c7c3b92591015b60405180910390a35060015b92915050565b6001600160a01b0383166000908152600960205260408120548211156102f657600080fd5b6001600160a01b0384166000908152600a6020908152604080832033845290915290205482111561032657600080fd5b6001600160a01b03831661033957600080fd5b6001600160a01b03841660009081526009602052604081208054849290610361908490610777565b90915550506001600160a01b0383166000908152600960205260408120805484929061038e90849061078a565b90915550506001600160a01b0384166000908152600a60209081526040808320338452909152812080548492906103c6908490610777565b92505081905550826001600160a01b0316846001600160a01b03167fddf252ad1be2c89b69c2b068fc378daa952ba7f163c4a11628f55a4df523b3ef8460405161041291815260200190565b60405180910390a35060019392505050565b6008818154811061043457600080fd5b6000918252602090912060049091020180546001820180549193509061045990610727565b80601f016020809104026020016040519081016040528092919081815260200182805461048590610727565b80156104d25780601f106104a7576101008083540402835291602001916104d2565b820191906000526020600020905b8154815290600101906020018083116104b557829003601f168201915b5050505050908060020154908060030154905084565b600280546101d590610727565b3360009081526009602052604081205482111561051157600080fd5b6001600160a01b03831661052457600080fd5b3360009081526009602052604081208054849290610543908490610777565b90915550506001600160a01b0383166000908152600960205260408120805484929061057090849061078a565b90915550506040518281526001600160a01b0384169033907fddf252ad1be2c89b69c2b068fc378daa952ba7f163c4a11628f55a4df523b3ef906020016102bf565b6000815180845260005b818110156105d8576020818501810151868301820152016105bc565b506000602082860101526020601f19601f83011685010191505092915050565b60208152600061060b60208301846105b2565b9392505050565b80356001600160a01b038116811461062957600080fd5b919050565b6000806040838503121561064157600080fd5b61064a83610612565b946020939093013593505050565b60008060006060848603121561066d57600080fd5b61067684610612565b925061068460208501610612565b9150604084013590509250925092565b6000602082840312156106a657600080fd5b5035919050565b8481526080602082015260006106c660808301866105b2565b6040830194909452506060015292915050565b6000602082840312156106eb57600080fd5b61060b82610612565b6000806040838503121561070757600080fd5b61071083610612565b915061071e60208401610612565b90509250929050565b600181811c9082168061073b57607f821691505b60208210810361075b57634e487b7160e01b600052602260045260246000fd5b50919050565b634e487b7160e01b600052601160045260246000fd5b818103818111156102cb576102cb610761565b808201808211156102cb576102cb61076156fea264697066735822122004d5bec3f5724140e699ba764fd363861cfc9e9e0f35d0b4d2baaf074ee20ddf64736f6c63430008130033",
    "sourcePath": "d:/dsentamans/UNI/TFG/Dapp/contracts/Micontrato.sol",
    "compiler": {
        "name": "solc",
        "version": "0.8.19+commit.7dd6d404"
    },
    "functionHashes": {
        "allowance(address,address)": "dd62ed3e",
        "approve(address,uint256)": "095ea7b3",
        "balanceOf(address)": "70a08231",
        "decimals()": "313ce567",
        "name()": "06fdde03",
        "productsBase(uint256)": "6c3cebfe",
        "symbol()": "95d89b41",
        "totalSupply()": "18160ddd",
        "transfer(address,uint256)": "a9059cbb",
        "transferFrom(address,address,uint256)": "23b872dd"
    },
    "gasEstimates": {
        "creation": {
            "codeDepositCost": "400600",
            "executionCost": "infinite",
            "totalCost": "infinite"
        },
        "external": {
            "allowance(address,address)": "infinite",
            "approve(address,uint256)": "24544",
            "balanceOf(address)": "2559",
            "decimals()": "2402",
            "name()": "infinite",
            "productsBase(uint256)": "infinite",
            "symbol()": "infinite",
            "totalSupply()": "2326",
            "transfer(address,uint256)": "infinite",
            "transferFrom(address,address,uint256)": "infinite"
        }
    }
}